:020000040800F2
:10000000882300201913000865030008670300080F
:100010006B0300086F030008730300080000000072
:10002000000000000000000000000000770300084E
:1000300079030008000000007B0300087D0300082E
:100040003313000833130008331300083313000878
:100050003313000833130008331300083313000868
:100060003313000833130008331300083313000858
:100070003313000833130008331300083313000848
:100080003313000833130008331300083313000838
:100090001138000833130008331300083313000825
:1000A0003313000833130008331300083313000818
:1000B0003313000833130008331300083313000808
:1000C00033130008331300083313000833130008F8
:1000D000331300088D12000833130008331300088F
:1000E00033130008331300080538000833130008E1
:1000F00033130008331300083313000833130008C8
:1001000033130008331300083313000833130008B7
:1001100033130008331300083313000833130008A7
:100120003313000833130008331300083313000897
:1001300000F002F800F0B0F80AA090E8000C824449
:100140008344AAF10107DA4501D100F0A5F8AFF226
:10015000090EBAE80F0013F0010F18BFFB1A43F0A5
:1001600001031847447D0000647D00000A444FF0FD
:10017000000C10F8013B13F0070408BF10F8014B06
:100180001D1108BF10F8015B641E05D010F8016B4B
:10019000641E01F8016BF9D113F0080F1EBF10F8AF
:1001A000014BAD1C0C1B09D16D1E58BF01F801CBD2
:1001B000FAD505E014F8016B01F8016B6D1EF9D555
:1001C0009142D6D37047000000230024002500266A
:1001D000103A28BF78C1FBD8520728BF30C148BFAA
:1001E0000B6070476E2904F04F82702904F0A383DE
:1001F000662905F06984652905F06684672905F09C
:1002000063846129AFF3008003681B0A28BF41F0B3
:100210008001692904F05A80642904F05780752907
:1002200004F054806F2904F03183782904F06F833F
:10023000E92904F0CB82E42904F0C882F52904F00E
:10024000C582EF2904F02E83F82904F06E83036839
:10025000DB0928BF41F08001632904F0D3857329AD
:1002600004F0D885E32904F0E385F32904F0E88558
:10027000002070471FB504F039FE04000020002163
:1002800005F020FB401C60600020002105F004FB0D
:10029000E0601FBD10B510BD04F0FAFD1146FFF778
:1002A000E9FF00F009F804F0D3FE03B4FFF7F2FF12
:1002B00003BC00F091FF000008B500BF00BF00BF05
:1002C000002400F01FFF4FF4A06001F045F84FF448
:1002D000E13000F08FFF00F043F94FF4E16000F0EF
:1002E0004EFF002003F0EDFA4FF42F7000F047FFAF
:1002F000012003F0E6FA03F08FFA03F0ADFA02F002
:1003000053FC00F0E7FD642000F039FF02211248A1
:1003100001F09DF94FF6FF70F0234FF4A072002119
:100320000090084600F042F9642000F028FF11E038
:100330000A48006884420BD008480068C4B2052C03
:1003400003D100200649086002E00120044908604A
:1003500000F01EFDECE70000000801405001002005
:1003600094012342704700BFFEE700BFFEE700BFD5
:10037000FEE700BFFEE77047704770477047000018
:100380000CB50020019000906C48006840F480306B
:100390006A49086000BF6948006800F400300090B6
:1003A0000198401C0190009818B90198B0F5A06F11
:1003B000F1D16248006800F4003010B101200090D3
:1003C00001E0002000900098012843D15C480068BB
:1003D00040F010005A4908600846006820F0030009
:1003E00008600846006840F0020008605348406812
:1003F000524948600846406848600846406840F4F2
:10040000806048600846406820F47C1048600846D8
:10041000406840F4E81048600846006840F080708A
:10042000086000BF4548006800F000700028F9D05F
:100430004248406820F00300404948600846406850
:1004400040F00200486000BF3C48406800F00C00EB
:100450000828F9D10CBD10B5FFF792FF10BD10B5FB
:100460003648006840F0010034490860084640689A
:10047000344908403149486008460068324908401C
:100480002E4908600846006820F48020086008466D
:10049000406820F4FE0048604FF41F008860FFF7BA
:1004A000DAFF4FF000602949086010BD10B5002147
:1004B00000200022214B5B6803F00C0121B10429CC
:1004C00006D0082928D107E0214B224C236027E0E1
:1004D0001F4B204C236023E0184B5B6803F4701023
:1004E000164B5B6803F48032022303EB904022B981
:1004F000194B4343174C23600DE0104B5B6803F42A
:10050000003323B1144B4343124C236003E0104BE0
:100510004343104C236003E00D4B0E4C236000BF9F
:1005200000BF064B5B68C3F303130C4CE15C094B43
:100530001B68CB40074C236010BD00000010024038
:10054000002002400000FFF8FFFFF6FE08ED00E08B
:1005500000127A000000002000093D000400002085
:1005600008B50121482001F081FA2020ADF80000F3
:1005700010208DF8030003208DF802006946094819
:1005800000F0B8FF2021074801F061F82020ADF805
:1005900000006946044800F0ADFF2021024801F048
:1005A00056F808BD000C0140001801402DE9F04745
:1005B00004460D4616461F46DDF820A03B4632464F
:1005C0002946204600F065FCA8460EE0A14606E05C
:1005D000504600F047FC09F101001FFA80F9B145CF
:1005E000F6DB08F101001FFA80F8B845EEDBBDE844
:1005F000F08770B504460D4616462B46224629461E
:10060000204600F046FC304600F02CFC70BD2DE981
:10061000FF4F85B081468A460020039083460798A5
:10062000A0EB09040898A0EB0A06CDF80890CDF8D5
:1006300004A0002C01DD012705E00CB9002702E031
:100640004FF0FF376442002E02DD4FF0010806E054
:1006500016B94FF0000802E04FF0FF386642B4428E
:1006600001DD254600E03546002004901EE0019A99
:1006700091B2029A90B2129AFFF7BBFF03982044FE
:100680000390B3440398A84205DD0398401B0390F0
:10069000029838440290AB4504DDABEB050B0198A2
:1006A000404401900498401C80B20490691C049856
:1006B0008842DCDB09B0BDE8F08F2DE9F843054640
:1006C0000E4617469846089C33463A463146284619
:1006D0000094FFF79CFF43462A4631462846009483
:1006E000FFF795FF43463A46414628460094FFF7F8
:1006F0008EFF43463A46314638460094FFF787FF5F
:10070000BDE8F8832DE9F04706460F469046994626
:100710000025444641E07A1B91B2321B90B24A4612
:10072000FFF767FF7A1B91B2321990B24A46FFF782
:1007300060FF3A1991B2721B90B24A46FFF759FF17
:100740003A1B91B2721B90B24A46FFF752FF7A19D8
:1007500091B2321990B24A46FFF74BFF3A1B91B261
:10076000721990B24A46FFF744FF3A1991B27219D2
:1007700090B24A46FFF73DFF7A1991B2321B90B210
:100780004A46FFF736FF6D1C05FB05F004FB04012C
:1007900008FB08F0814200DD641EA542BBDDBDE818
:1007A000F0872DE9FE4F06468B4691469A460D9CF2
:1007B00000962046E11704EB5171C910614389B2DC
:1007C000019105200290002560E005EB8510FC49B1
:1007D00011F8100099F80010884254D105EB8510EB
:1007E000F74901EB4000407899F8011088424AD15E
:1007F000234622465946304600F04BFB00273FE097
:100800004FF0000836E00E9898B905EB8510EC49DA
:1008100001EB4000801CC05D012101FA08F1084095
:1008200018B1504600F01EFB20E00C9800F01AFBB7
:100830001CE005EB8510E24901EB4000801CC05D27
:10084000012101FA08F1084020B1524659463046CC
:10085000FFF7CFFE701C86B20098301AA04205D177
:10086000009E0BF101001FFA80FB06E008F1010079
:1008700000F0FF08B8F1080FC5DB00BF781CC7B255
:1008800001988742BCDB00BF681C85B20298854294
:100890009BDBBDE8FE8F2DE9FE4F06468B46914659
:1008A0009A460D9C00962046E11704EB5171C91041
:1008B000614389B2019105200290002568E005EBB3
:1008C000850000EB4510BF4911F8100099F80010A1
:1008D00088425AD105EB850000EB4510B94901EB80
:1008E0004000407899F8011088424ED123462246B4
:1008F0005946304600F0CDFA002743E04FF000089B
:100900003AE00E98A8B905EB850000EB4510AD491B
:1009100001EB4000801CC05D012101FA08F1084094
:1009200018B1504600F09EFA22E00C9800F09AFAB6
:100930001EE005EB850000EB4510A24901EB4000ED
:10094000801CC05D012101FA08F1084020B1524627
:1009500059463046FFF74DFE701C86B20098301A9B
:10096000A04205D1009E0BF101001FFA80FB06E0BA
:1009700008F1010000F0FF08B8F1080FC1DB00BF6B
:10098000781CC7B201988742B8DB00BF681C85B2EB
:100990000298854293DBBDE8FE8F2DE9F05F81462A
:1009A0008A4614461D46DDF828B0002710231A4653
:1009B0005146484600F06DFA002617E094F8008092
:1009C00000270FE008F0800018B1284600F04AFA2E
:1009D00002E0584600F046FA4FEA48604FEA1068D5
:1009E000781CC7B2082FEDDB641C761C202EE5D3E3
:1009F000BDE8F09F2DE9FE4F8046894615469A4690
:100A0000DDE90D470C9E2AE0102C09D153462A46F9
:100A100049464046CDE901470096FFF7BEFF19E081
:100A2000182C09D153462A4649464046CDE901478C
:100A30000096FFF730FF0DE0202C09D153462A46DF
:100A400049464046CDE901470096FFF7AAFE01E07E
:100A5000BDE8FE8FAD1C08EB04001FFA80F8287873
:100A60000028D1D100BFF3E72DE9FF4F83B0064640
:100A700017469A46119C0196204604EBD071C1F3AB
:100A800047052846E91705EB5171C910614389B242
:100A90000291A7F12000C7B223462A4630460499A6
:100AA00000F0F7F94FF0000948E0102C05D1464856
:100AB00000EB071010F809B00AE0202C05D14348DC
:100AC00000EB871010F809B002E007B0BDE8F08F26
:100AD0004FF000082AE0129868B9012000FA08F0E7
:100AE00000EA0B0018B1504600F0BCF91AE010986B
:100AF00000F0B8F916E0012000FA08F000EA0B0057
:100B000020B1524630460499FFF773FD701C86B23F
:100B10000198301AA84205D1019E0498401C80B269
:100B2000049006E008F1010000F0FF08B8F1080F9A
:100B3000D1DB00BF09F101001FFA80F9029881455D
:100B4000B3DB00BFC1E72DE9FE4F06460F46144652
:100B50009846DDE90D5ADDF8309010E0CDE9015AF4
:100B6000CDF800902278434639463046FFF77CFFA7
:100B7000284605EBD07106EB61018EB2641C20782B
:100B80000028EBD1BDE8FE8F10B50246012000E041
:100B900050430B1EA1F10104E1B2F9D110BD2DE9C2
:100BA000FF4F85B0074691461D46DDE913A600209C
:100BB0000490304606EBD071C1F3470B00243CE0B3
:100BC000987A000826790008CC5A0008BC60000812
:100BD000281B401EC1B20A20FFF7D6FFB9FBF0F078
:100BE0000A21B0FBF1F201FB12080498A0B9681EBB
:100BF000A04211DDB8F1000F0CD1002004FB0B71F5
:100C0000CDE900A6029088B22022129B0699FFF738
:100C10002BFF10E001200490002008F13001CAB23F
:100C200004FB0B71CDE900A6029088B2129B0699D5
:100C3000FFF71AFF00BF601CC4B2AC42C8DB09B0AA
:100C4000BDE8F08F2DE9FF4F85B0074690461C4662
:100C5000DDE91396304606EBD071C1F3470B5B49D3
:100C6000404604F065FE039004F042FE80B204901A
:100C7000002531E0601B401EC1B20A20FFF784FF4F
:100C80000499B1FBF0F00A21B0FBF1F201FB120A6A
:100C9000A01EA84210D10020A11E01FB0B71CDE9BE
:100CA0000096029088B22E22129B0699FFF7DCFE76
:100CB000681CC5B2601CC4B200200AF13001CAB27F
:100CC00005FB0B71CDE90096029088B2129B069944
:100CD000FFF7CAFE681CC5B2A542CBDB09B0BDE870
:100CE000F08F2DE9F05F82468B4615461E460A9F1F
:100CF000002433462A465946504600F0CAF8A0461A
:100D000017E04FF000090EE017F8140000F0A4F807
:100D1000012101EB4401785C00F09EF8641C09F1AC
:100D200001001FFA80F9B145EEDB08F101001FFA5E
:100D300080F8A845E5DBBDE8F09F2DE9F0470446C3
:100D4000884691462588B4F802A053462A4649466B
:100D5000404600F09EF8002716E0002610E007FB52
:100D60000561891C34F81110081200F075F807FBB2
:100D70000561891C14F8110000F06EF8701C86B231
:100D8000AE42ECDB781C87B25745E6DBBDE8F08766
:100D900008B50F4800780A2817D100200C490870C0
:100DA0000C4801234FF4A07200900B4801780020FA
:100DB000FFF797FF08480078401C0749087008466D
:100DC0000078F02801D10020087008BD0000C8425A
:100DD000140000205C0100201800002008B501214B
:100DE000042000F043FEF320ADF8000010208DF841
:100DF000030003208DF802006946C14800F07AFB29
:100E0000F321BF4800F023FC08BD70B50446012162
:100E1000BB4800F01EFC002517E01021B84800F088
:100E200018FC04F0800020B12021B54800F00FFC30
:100E300003E02021B24800F00CFC1021B04800F083
:100E400006FC6006040E681CC5B2082DE5DB012116
:100E5000AB4800F0FCFB70BD10B504462046FFF720
:100E6000D4FF10BD10B504462012FFF7CEFFE0B24C
:100E7000FFF7CBFF10BD10B504468021A04800F05D
:100E8000E8FB2046FFF7C1FF80219D4800F0DFFB13
:100E900010BD2DE9F04105460C4616461F462A2096
:100EA000FFF7E9FF2846FFF7DDFFA919491E88B2C1
:100EB000FFF7D8FF2B20FFF7DEFF2046FFF7D2FF1A
:100EC000E119491E88B2FFF7CDFF2C20FFF7D3FFB1
:100ED000BDE8F0812DE9F041002400254FF4A07811
:100EE0000026F027FFF77AFF4021854800F0B1FB8C
:100EF000642000F044F94021814800F0A8FB642000
:100F000000F03DF902217E4800F0A3FB642000F0D0
:100F100036F91120FFF7AFFF782000F030F93A20C2
:100F2000FFF7A9FF0520FFF797FFC520FFF7A3FFF5
:100F30001A20FFF791FF3620FFF79DFF00BF44F016
:100F4000400444F020042046FFF786FF2A20FFF7E4
:100F500092FF280AFFF780FF2846FFF77DFF4FEA40
:100F60001820FFF779FF08F0FF00FFF775FF2B202F
:100F7000FFF781FF300AFFF76FFF3046FFF76CFF86
:100F8000380AFFF769FF3846FFF766FFB220FFF720
:100F900063FF0520FFF760FF0520FFF75DFF0020DE
:100FA000FFF75AFF3320FFF757FF3320FFF754FFB7
:100FB000B720FFF760FF0520FFF74EFFBB20FFF7CC
:100FC0005AFF3F20FFF748FFC020FFF754FF2C20B7
:100FD000FFF742FFC220FFF74EFF0120FFF73CFF63
:100FE000C320FFF748FF0F20FFF736FFC420FFF7AD
:100FF00042FF2020FFF730FFC620FFF73CFF012013
:10100000FFF72AFFD020FFF736FFA420FFF724FFC9
:10101000A120FFF721FFE820FFF72DFF0320FFF7B6
:101020001BFFE920FFF727FF0920FFF715FF092025
:10103000FFF712FF0820FFF70FFFE020FFF71BFF6D
:10104000D020FFF709FF0520FFF706FF0920FFF773
:1010500003FF0920FFF700FF0820FFF7FDFE142023
:10106000FFF7FAFE2820FFF7F7FE3320FFF7F4FE24
:101070003F20FFF7F1FE0720FFF7EEFE1320FFF7FA
:10108000EBFE1420FFF7E8FE2820FFF7E5FE3020F6
:10109000FFF7E2FEE120FFF7EEFED020FFF7DCFED7
:1010A0000520FFF7D9FE0920FFF7D6FE0920FFF73C
:1010B000D3FE0820FFF7D0FE0320FFF7CDFE24204B
:1010C000FFF7CAFE3220FFF7C7FE3220FFF7C4FE4B
:1010D0003B20FFF7C1FE1420FFF7BEFE1320FFF7F1
:1010E000BBFE2820FFF7B8FE2F20FFF7B5FE21201A
:1010F000FFF7C1FE2920FFF7BEFEBDE8F08100002A
:101100000008014010B56FF0040000F074F92E489B
:1011100000682E49B0FBF1F02D49087008460078B0
:1011200000EB4001C1EBC0104FF6FF7101EAC000B7
:101130002849088010BD0146254A12784A434FF0DD
:10114000E0235A6100229A611A46126942F00102B4
:101150001A6100BF4FF0E022106900F001021AB1DD
:1011600000F48032002AF5D04FF0E022126922F01C
:1011700001024FF0E0231A6100229A617047014694
:10118000144A12884A434FF0E0235A6100229A61C0
:101190001A46126942F001021A6100BF4FF0E022C4
:1011A000106900F001021AB100F48032002AF5D073
:1011B0004FF0E022126922F001024FF0E0231A61A1
:1011C00000229A61704700000000002000127A009F
:1011D0001A0000201C00002000BF704700BF4A4AD0
:1011E000128802F04002002AF9D0C2B2464B1B1D01
:1011F0001A80704710B586B00446012144F20400FD
:1012000000F034FC4FF40070ADF8140003208DF8AA
:10121000160018208DF8170005A93C4800F06AF95F
:101220004FF48060ADF8140004208DF8170005A974
:10123000364800F05FF925208DF8000003208DF876
:1012400001008DF8020001208DF80300684600F0CF
:1012500088F801940020ADF80800ADF80A00ADF858
:101260000C00ADF810000C20ADF80E0001A92648C6
:1012700000F0A3FC012240F22551234800F035FD87
:101280000121214800F025FD06B010BD10B540F247
:1012900025511D4800F00EFE10B31B4800F08AFDDA
:1012A000C4B21B48008800F40040C8B91848008840
:1012B00000F4804060B10A2C03D00020144908805B
:1012C00020E01348008840F400401149088019E0EC
:1012D0000D2C06D10E48008840F480400C4908804F
:1012E00010E00B480088C0F30D000A490C54084870
:1012F0000088401C0649088008460088C72801DD90
:101300000020088010BD00000038014000080140A6
:1013100024000020DC0300200948804709480047DA
:10132000FEE7FEE7FEE7FEE7FEE7FEE7FEE7FEE795
:10133000FEE7FEE704480549054A064B70470000F2
:101340005F04000831010008881D00208823002068
:10135000881F0020881F002031490143314A116055
:10136000704770B5002100230F22C47804B32D4CC0
:10137000246804F4E064C4F5E064210AC1F10403C4
:10138000CA40447804FA03F18478144021430901E7
:10139000254C0678A155047804F01F050124AC40C3
:1013A00005786D11AD0005F1E025C5F8004109E0B3
:1013B000047804F01F050124AC401C4D067876111A
:1013C00045F8264070BD1A4A0A400243154B1B1FC0
:1013D0001A60704739B1134A121D12680243114B4B
:1013E0001B1D1A6006E00F4A121D126882430D4B46
:1013F0001B1D1A607047042808D14FF0E0210969CD
:1014000041F004014FF0E022116107E04FF0E021CC
:10141000096921F004014FF0E022116170470000DA
:101420000000FA050CED00E000E400E080E100E0DF
:1014300080FFFF1F10B50446CC48844208D101212B
:10144000042000F02DFB0021042000F029FB46E0E1
:10145000C748844208D10121082000F021FB002167
:10146000082000F01DFB3AE0C248844208D1012167
:10147000102000F015FB0021102000F011FB2EE0E1
:10148000BD48844208D10121202000F009FB002141
:10149000202000F005FB22E0B848844208D1012159
:1014A000402000F0FDFA0021402000F0F9FA16E09B
:1014B000B348844208D10121802000F0F1FA0021D4
:1014C000802000F0EDFA0AE0AE48844207D1012105
:1014D000801500F0E5FA0021A01500F0E1FA10BD3A
:1014E00010B50121084600F0DBFA0021012000F0D0
:1014F000D7FA10BD2DE9F041024600250026002054
:1015000000230024002791F803C00CF00F0591F888
:1015100003C00CF0100CBCF1000F03D091F802C016
:101520004CEA050591F800C0BCF1000F31D01468F9
:1015300000202BE04FF0010C0CFA00F3B1F800C0D2
:101540000CEA03069E4220D183004FF00F0C0CFAE8
:1015500003F7BC4305FA03FC4CEA040491F803C00A
:10156000BCF1280F06D14FF0010C0CFA00FCC2F8B8
:1015700014C00AE091F803C0BCF1480F05D14FF048
:10158000010C0CFA00FCC2F810C0401C0828D1D392
:101590001460B1F800C0BCF1FF0F34DD54680020C6
:1015A0002EE000F1080C4FF0010808FA0CF3B1F836
:1015B00000C00CEA03069E4221D183004FF00F0CBD
:1015C0000CFA03F7BC4305FA03FC4CEA040491F857
:1015D00003C0BCF1280F05D100F1080C08FA0CF883
:1015E000C2F8148091F803C0BCF1480F07D100F194
:1015F000080C4FF0010808FA0CF8C2F81080401CE3
:101600000828CED35460BDE8F0814FF6FF71018009
:10161000022181700421C170704702460020936846
:101620000B400BB1012000E00020704701468868A4
:1016300080B2704702460020D3680B400BB10120F6
:1016400000E0002070470146C86880B27047016121
:101650007047416170470AB1016100E04161704724
:10166000C16070474FF480320A43826181618261B8
:1016700082698269704702460020434B18684FF622
:101680008073184040EA021008433F4B18607047CF
:101690003E49C8617047F0B50A4600230024002186
:1016A000002500F00046B6F1004F02D1364EF16938
:1016B00001E0354E7168C0F3034583B200F4401673
:1016C000B6F5401F08D121F070612F4E766826F0E4
:1016D00070662D4F7E6012E000F48016B6F5801F14
:1016E00006D1032606FA05F4A14341F0706106E035
:1016F000460D360103FA06F6B14341F0706122B19E
:10170000460D360103FA06F6314300F00046B6F105
:10171000004F02D11C4EF16101E01B4E7160F0BD23
:1017200030B500228B071C0F0F2303FA04F2164B6F
:1017300008338C1053F824309343134C08348D1025
:1017400044F8253023468C1053F824308C07240F9E
:1017500000FA04F423430C4C08348D1044F825306F
:1017600030BD0A49DC3108607047000000080140C4
:10177000000C01400010014000140140001801401D
:10178000001C0140002001400000014000002042F8
:10179000DF48006840F00100DD4908600846406805
:1017A000DC490840DA49486008460068DA490840E0
:1017B000D74908600846006820F480200860084681
:1017C000406820F4FE0048604FF41F0088607047B6
:1017D000CF49096821F48031CD4A1160114609686A
:1017E00021F480211160B0F5803F03D0B0F5802F47
:1017F0000ED106E0C649096841F48031C44A11603F
:1018000007E0C349096841F4A021C14A116000E022
:1018100000BF00BF704710B5014600220023002022
:101820004A11012A02D1BA4C236806E0022A02D1E9
:10183000B74C236A01E0B64C636A01F01F02012431
:1018400094401C400CB1012000E0002010BD38B5D0
:10185000002000900024002500BF3120FFF7DBFFAF
:1018600005460098401C00900098B0F5A06F01D08C
:10187000002DF2D03120FFF7CEFF08B1012400E0A7
:101880000024204638BD01460020A14A106820F0FF
:10189000F80040EAC10010607047A0490860704736
:1018A000024600209A4B586820F47C1042EA01035B
:1018B0001843974B5860704798490866704701462F
:1018C0000020934A506820F003000843506070479E
:1018D0008F48406800F00C007047014600208C4A99
:1018E000506820F0F0000843506070470146002027
:1018F000874A506820F4E060084350607047014612
:101900000020834A506820F4605040EAC1005060D3
:10191000704729B17E4A527A02437D4B5A7204E0E5
:101920007B4A527A82437A4B5A7270477B49D8314C
:101930000860704701460020754A506820F4404016
:101940000843506070470021714A20321170704A7C
:1019500082F82010012802D004280AD104E00121D5
:101960006B4A2032117005E00521694A203211705E
:1019700000E000BF00BF70476949086070476449D4
:10198000096A0143624A1162704765494439086037
:10199000704730B500210022002400235C4D6D68A3
:1019A00005F00C0121B1042905D0082923D105E057
:1019B0005C4D056022E05B4D05601FE0544D6D6895
:1019C00005F47012524D6D6805F48034022505EB64
:1019D00092421CB9544D554305600BE04C4D6D6867
:1019E00005F400351DB1504D5543056002E04D4DE5
:1019F0005543056002E04B4D056000BF00BF444DFC
:101A00006D6805F0F0010909484D6B5C0568DD4023
:101A100045603F4D6D6805F4E061090A434D6B5C1C
:101A20004568DD4085603A4D6D6805F46051C90A2E
:101A30003E4D6B5C4568DD40C560354D6D6805F415
:101A40004041890B3A4D6B5CC568B5FBF3F5056108
:101A500030BD29B12E4A526902432D4B5A6104E030
:101A60002B4A526982432A4B5A61704729B1284A4E
:101A700092690243264B9A6104E0254A92698243A7
:101A8000234B9A61704729B1214AD2690243204B06
:101A9000DA6104E01E4AD26982431D4BDA61704765
:101AA00029B11B4AD2680243194BDA6004E0184A94
:101AB000D2688243164BDA60704729B1144A126922
:101AC0000243134B1A6104E0114A12698243104B1E
:101AD0001A61704712494039086070470F49C8645D
:101AE00070470B49C87170470948406A40F08070E0
:101AF00007494862704701460020054A92680A403B
:101B00000AB1012000E00020704701498872704747
:101B1000001002400000FFF8FFFFF6FE0000424206
:101B20008004424200127A0000093D002600002095
:101B30003600002010B50446FB48844209D101213B
:101B40008803FFF7ADFF00214FF48040FFF7A8FFA7
:101B500032E0F648844209D101214804FFF7ADFF85
:101B600000214FF40030FFF7A8FF25E0F048844241
:101B700009D101218804FFF7A0FF00214FF4802044
:101B8000FFF79BFF18E0EB48844209D10121C8040C
:101B9000FFF793FF00214FF40020FFF78EFF0BE0CB
:101BA000E548844208D101210805FFF786FF00219E
:101BB0004FF48010FFF781FF10BD2DE9F04786B08C
:101BC00005460E460024A24600BFA1460027B08964
:101BD00000B100BF2F462C8A4CF6FF700440F088FD
:101BE00004432C82AC894EF6F3100440B08831894E
:101BF0000843718908430443AC81AC8A4FF6FF4027
:101C00000440B0890443AC8201A8FFF7C2FEC64875
:101C1000874202D1DDF810A001E0DDF80CA0A88910
:101C200000F4004040B10AEBCA0000EB0A10316832
:101C30004900B0FBF1F807E00AEBCA0000EB0A101C
:101C400031688900B0FBF1F86420B8FBF0F00401C2
:101C50002009642101FB1089A88900F4004040B1EB
:101C6000322000EBC900B0FBF1F000F007000443A4
:101C700008E0322000EB09106421B0FBF1F000F025
:101C80000F0004432C8106B0BDE8F0874FF41651D5
:101C9000016000218180C18001810C2141810021EE
:101CA0008181704710B502460020108A4FF2FF0371
:101CB00018400B884C8823438C882343CC882343CB
:101CC0001843108210BD0021018041808180C180B5
:101CD000704721B1828942F40052828104E08289F6
:101CE0004DF6FF731A4082817047F0B50346002419
:101CF00000260025002040F66A17B94200D100BF37
:101D00001846C1F3421401F01F06012707FA06F531
:101D1000012C01D10C3004E0022C01D1103000E084
:101D200014301AB107682F43076002E00768AF4319
:101D30000760F0BD1AB1838A0B43838202E0838A75
:101D40008B4383827047028A4FF6F0731A400282F7
:101D5000028A0A430282704782894FF2FF731A4057
:101D6000828182890A438281704721B1828942F04F
:101D70000202828104E082894FF6FD731A4082815B
:101D80007047028A4FF6DF731A400282028A0A43C2
:101D90000282704721B1028A42F48042028204E04A
:101DA000028A4BF6FF731A4002827047C1F30802A1
:101DB0008280704701468888C0F308007047818997
:101DC00041F0010181817047028BD2B20283028B04
:101DD00042EA012202837047028B02F47F420283AF
:101DE000028B0A430283704721B1828A42F02002AB
:101DF000828204E0828A4FF6DF731A408282704743
:101E000021B1828A42F01002828204E0828A4FF677
:101E1000EF731A408282704721B1828A42F0080231
:101E2000828204E0828A4FF6F7731A4082827047FA
:101E300021B1828942F40042828103E08289C2F3A7
:101E40000E028281704721B1828A42F4006282824E
:101E500004E0828A4FF2FF731A4082827047828ABE
:101E60004FF6FB731A408282828A0A43828270474D
:101E700021B1828A42F00202828204E0828A4FF615
:101E8000FD731A408282704702460020B1F5007F40
:101E900000D100BF13880B400BB1012000E00020EF
:101EA000704701F40072B2F5007F00D100BFCA4351
:101EB0000280704770B502460024002300250020F0
:101EC00040F66A16B14200D100BFC1F3421501F0DD
:101ED0001F03012606FA03F3012D02D19689334030
:101EE00006E0022D02D1168A334001E0968A334083
:101EF0000C12012606FA04F41688344013B10CB112
:101F0000012000E0002070BD10B50022002340F643
:101F10006A14A14200D100BF0A1201249440A3B266
:101F2000DC43048010BD0000003801400044004044
:101F300000480040004C0040005000400020444950
:101F40000860091D0860091D0860091D08604148F6
:101F50003F4914310860704700213D498279002AC9
:101F60003AD00A46126803689A430B461A600A1D63
:101F7000126803689A430B1D1A60027911440A68BB
:101F800003681A430A60324A0832126803689A43A7
:101F90002F4B08331A601A1D126803689A432C4BA2
:101FA0000C331A604279102A0ED11A1F1268036886
:101FB0001A43274B08331A601A1D126803681A4324
:101FC000234B0C331A600DE02149427911440A6811
:101FD00003681A430A6005E0027911440A6803683D
:101FE0009A430A6070470021016001710C21417120
:101FF0000021817170471649103109680143144A64
:1020000010321160704701460020114A14321268E4
:102010000A400AB1012000E0002070470C49143149
:1020200008607047014600200022094B1B6803EA44
:102030000102074B14331B680B4013B10AB1012096
:1020400000E000207047024914310860704700002A
:1020500000040140FFFF0F0010B504462CB9012019
:10206000F64909680882002010BDF549096808682A
:102070008047F24800680A30F6E710B5EF4800687C
:10208000C078F0494978884213DCEC4800688078D1
:1020900078B9EA480068808858B9E8480068C0788C
:1020A000E64909688872E64909684868804700205F
:1020B00010BD0220FCE710B504462CB90120DF4911
:1020C00009680882002010BDDD49096888688047DA
:1020D000DA4800680C30F6E710B5D84B1B68D978A1
:1020E000D64B1B685879D84B1B689A6990470446B1
:1020F000D2480068807AE8B13CB9D04800680079DD
:1021000018B9CE480068807808B1022010BD8CB99B
:10211000CB490968C8688047C84800684079C74902
:102120000968C872C5480068C078C449096808735E
:102130000020EBE70220E9E710B504462CB90220A5
:10214000BE4909680882002010BD0020BF490880F0
:10215000BA480068007800F07F0018BBB7490968EA
:10216000487A00F0200131B1B849097841F0020104
:10217000B64A117005E0B549097801F0FD01B34A8E
:10218000117000F0400131B1B049097841F001010E
:10219000AE4A117005E0AD49097801F0FE01AB4A85
:1021A00011703AE0A5480068007800F07F0001282F
:1021B00001D1A648C8E7A1480068007800F07F0078
:1021C000022828D19D4A1268517901F00F0001F0D0
:1021D00080027AB19E4B03EB8002D2F8002C02F011
:1021E0003002102A16D1994A127842F00102974B18
:1021F0001A700FE0964B03EB8002D2F8002C02F429
:102200004052B2F5805F05D1904A127842F0010247
:102210008E4B1A7001E0002096E789490968086929
:1022200080478A4890E72DE9F047844800680078A5
:1022300000F07F08B8F1000F0AD180480068407AAA
:1022400000F0DF007D49096848720020BDE8F08792
:10225000B8F1020F7ED179480068408818B97748F4
:102260000068007908B10220F0E7DFF8D8917348E0
:102270000068477927F080052C467048006840794F
:1022800000F0800038B1724901EB8400D0F8000CF6
:1022900000F0300606E06E4901EB8400D0F8000C37
:1022A00000F4405699F80000A84204D91EB16348D2
:1022B0000068807A08B90220C8E707F0800080B182
:1022C000634901EB8400D0F8000C00F030001028C6
:1022D0004BD1E0B201F01DF8E0B2302100F09FFEDA
:1022E00043E05B4901EB8400D0F8000C00F440505F
:1022F000B0F5805F39D1E4B9564A92F82C10E0B2BB
:1023000001F091F8524A02EB8401D1F8001C4BF61F
:102310008F7201EA020080F4805080F4005040F493
:10232000004141F080014A4B03EB8402C2F8001CDB
:102330001BE0E0B200F0D5FF454A02EB8401D1F882
:10234000001C4BF68F7201EA020080F4805080F48A
:10235000005000E00FE040F4004141F080013C4BB0
:1023600003EB8402C2F8001C00BF354909684869C4
:10237000804700206AE700BF022067E72DE9F041AF
:102380002E480068467926F080073C462B480068B6
:10239000407900F0800038B12D4901EB8400D0F87D
:1023A000000C00F0300506E0294901EB8400D0F86C
:1023B000000C00F4405523480078A04208D91F487B
:1023C0000068408820B91DB11C480068807A10B9A7
:1023D0000220BDE8F08106F08000A0B11C4A02EBAB
:1023E0008401D1F8001C48F6BF7201EA020080F0B7
:1023F000100040F4004141F08001154B03EB8402D2
:10240000C2F8001C14E0124A02EB8401D1F8001C4F
:102410004BF68F7201EA020080F4805040F40041D4
:1024200041F080010A4B03EB8402C2F8001C00BF9C
:1024300003490968886980470020CAE744000020F2
:1024400050000020C8000020480000203A00002072
:1024500000500040CC00002010B5F7480068407ADA
:1024600040F02000F44909684872F4490968C869D5
:102470008047002010BD10B50246EF480068438A2F
:1024800032B98888C01AEC4C24682082002010BD24
:1024900008681844FBE72DE9F041E748006800F1BF
:1024A00010042688A068C0B1BEB1A588B54200D985
:1024B0003546A8B2A168884707462088401B20807F
:1024C000608828446080002000F07FFF8046AAB228
:1024D0004146384600F03EFD00BF208850B14FF421
:1024E0004050D74908800021084600F07AFF30208C
:1024F000D44908802088A188884204DB0320CE4983
:102500000968087218E02088002804DD0520CA49FF
:102510000968087210E0208870B90620C649096869
:1025200008720021C848006880B2801CC74A42F87F
:1025300010103020C3490880BDE8F0812DE9F04734
:10254000BD48006800F110052E88BB480068077A76
:10255000D6B9042F18D1BE48007801280FD1002128
:10256000B948006880B2801CB84A42F81010302088
:10257000B449088000BF0020B549087003E0072770
:102580001020B049088027E0AC88A64201D804207A
:1025900000E002200746B44200D93446A0B2A96840
:1025A00088478046002000F005FF8146A2B24946D8
:1025B000404600F0B5FCA1B2002000F012FF2888D0
:1025C000001B288068882044688030209D4908804E
:1025D00000029B49088000BF974909680F72BDE857
:1025E000F08770B5022694480068447892480068E5
:1025F000007800F07F00002844D1092C03D1FFF7B8
:102600003CFD06465FE0052C14D18B480068C0787D
:102610007F280BDC88480068807838B986480068D5
:10262000808818B984480068807A08B1082565E078
:10263000002648E0032C0ED17F480068C0780128AE
:1026400007D17D480068808818B9FFF705FF064666
:1026500039E0022637E0012C35D177480068C07890
:1026600001280DD174480068808848B97248006814
:10267000407A00F0200018B1FFF7D5FD064622E0B1
:10268000022620E06C480068007800F07F000128F6
:1026900005D10B2C17D1FFF71FFD064613E0664846
:1026A0000068007800F07F0002280BD1012C03D1D4
:1026B000FFF7B9FD064606E0032C04D1FFF75EFEE6
:1026C000064600E002264EB1E0B2624A1268516945
:1026D00088470646032E01D109250FE00EB10825D3
:1026E0000CE0062500215848006880B2801C574A3B
:1026F00042F8101030205349088000BF4E49096845
:102700000D7270BD2DE9F84F4B48006845780027E1
:10271000BA46062D1BD148480068007800F07F00BB
:10272000002813D1444909688878012803D1494910
:102730000968CF690AE0022803D1464909680F6A8F
:1027400004E0032802D1434909684F6AADE0002D37
:1027500067D1394800684088002862D1364800684F
:10276000C08802285DD1344800680079002858D11B
:1027700031480068007800F07F0030B92E480068CA
:10278000808810B9AFF24F678FE02B48006800785F
:1027900000F07F00012811D12749096848792D49A7
:1027A00009688A690021904700287ED12248006884
:1027B000807A002879D0AFF27F6776E01E48006803
:1027C000007800F07F0002286FD11B480068407934
:1027D00000F00F0618480068407900F070091648AC
:1027E0000068407900F0800038B11B4901EB860099
:1027F000D0F8000C00F0300806E0174901EB860025
:10280000D0F8000C00F4405814480078B0424CD97D
:10281000B9F1000F49D1B8F1000F46D0AFF2E76728
:1028200043E0082D1CD104480068007800F07F00C8
:10283000D8BBAFF2DB7738E0440000205000002026
:102840005400002056000020505C00400060004012
:102850003C0000204800002000500040C80000203C
:102860000A2D22D1C5480068007800F07F000128B9
:102870001BD1C2480068807AB8B1C048006840885F
:1028800098B9BE480068007978B9BC480068C0882B
:1028900001280AD1B94909684879B94909688A699A
:1028A0000021904708B9AFF2F17757B1B3480068FB
:1028B000A0F812A0B148006887610020B847002442
:1028C0000FE0AE4A12685078AD4A12681169884725
:1028D0000446032C05D10920A84909680872BDE8FF
:1028E000F88FA6480068008A4FF6FF71884204D12D
:1028F0000920A24909680872F1E7022C03D09F4819
:102900000068008A20B908209C4909680872E6E737
:102910009A480068007800F08000E0B397480068AB
:10292000C088009095480068008A0099884204D9C0
:10293000924900980968088223E090480068008A5C
:102940008E490968C98888421BDA8C480068008A69
:102950008B49096891F82C10884203DA00208949D4
:1029600008700EE085480068008A8549096891F87A
:102970002C1090FBF1F201FB120010B901208149EB
:1029800008707F48006890F82C107C4800688182AD
:10299000FFF7D4FD07E0FFE70320784909680872D4
:1029A00000037949088000BF99E710B5774890F88F
:1029B0002C10002000F037FD70480068007A0828CD
:1029C00005D14002704908801020714908806B4889
:1029D0000068007A092801D1012010BD0020FCE721
:1029E00038B501246B48006880B2001D6A4931F88F
:1029F000100080B201EB4000009060480068007A4F
:102A0000092832D0009800785C490968087000985D
:102A1000401C009000980078584909684870009858
:102A2000401C0090009800EB44000090009931F8A1
:102A3000020B009100F0A0FE504909684880009800
:102A400000EB44000090009931F8020B009100F077
:102A500093FE4A4909688880009800EB4400009082
:102A60000098008845490968C880012043490968E1
:102A7000087242480068C08810B9FFF7B2FD01E053
:102A8000FFF740FEFFF791FF38BD30B50146434BDD
:102A90001A78002014E00306414C04EB9353D3F85A
:102AA000003C48F68F74234048F280042343C4B2AC
:102AB000234304063A4D05EB9454C4F8003C401CF3
:102AC0009042E8D341F08003324C241F236030BD94
:102AD00010B52A480068047A022C01D0042C05D1D4
:102AE000FFF72CFD25480068047A1CE0062C19D15C
:102AF00022480068407805280ED1204800680078F8
:102B000000F07F0040B91D490968C878FFF7BDFF94
:102B100024490968086A8047194909688868804714
:102B2000082400E00824154909680C72FFF73DFFEE
:102B300010BD10B511480068047A022C01D0042C95
:102B400001D1082412E0032C01D0052C05D1FFF798
:102B5000A2FC0A480068047A08E0072C05D108495D
:102B60000968C8688047082400E008240349096808
:102B70000C72FFF71AFF10BD7047000044000020E0
:102B8000480000203C00002054000020CC00002021
:102B900056000020505C004000600040C80000204B
:102BA000005000405000002010B508480849086057
:102BB0000220096808720748074908600748084961
:102BC0000860054909680868804710BDA404002012
:102BD00044000020CC00002048000020FC00002021
:102BE0005000002008B50020009022E1C448008871
:102BF00000F00F00C34908700846007800287CD117
:102C0000C1480068C14908800846008800F03000CB
:102C1000BF490880BD48008800F44050BB49088087
:102C2000B94909684BF6BF7201EA020080F400500E
:102C300080F0200040F4004141F08001B24A116070
:102C4000AF48008800F0100090BB1046006848F6BE
:102C50000F71084011460860FFF73AFFAA4909685A
:102C60004BF6BF7201EA0200A849098801F48051BD
:102C700009B180F48050A549098801F4005109B1D7
:102C800080F40050A249098801F0100109B180F0D8
:102C900010009F49098801F0200109B180F020004F
:102CA00081B241F4004141F08001974A116008BDB2
:102CB000FFE79548006880B20090BDF8000000F47E
:102CC0000060B0B390480068C0F30E0048F68F7102
:102CD00008408D490860FFF783FE8B4909684BF671
:102CE000BF7201EA02008949098801F4805109B1E3
:102CF00080F480508549098800E056E001F40051D5
:102D000009B180F400508249098801F0100109B12D
:102D100080F010007E49098801F0200109B180F09F
:102D2000200081B241F4004141F08001764A1160F7
:102D3000BDE7FFE7BDF8000000F40040002878D0B0
:102D400071480068C0F30E0048F68F7108406E4964
:102D50000860FFF7EEFE6C4909684BF6BF7201EAA6
:102D600002006A49098801F4805109B180F4805059
:102D70006649098801F4005109B180F400506449A2
:102D8000098801F0100109B180F01000604909883C
:102D900001F0200109B180F0200081B241F400412E
:102DA00041F08001584A116081E75648007859493E
:102DB00001EB8000D0F8000C80B20090BDF800005C
:102DC00000F40040C0B14F48007801EB8000D0F81B
:102DD000000CC0F30E0048F68F710840494909788D
:102DE0004C4A02EB8101C1F8000C46490978491EA2
:102DF000494A52F821008047BDF8000000F08000E9
:102E0000B8B140480078434901EB8000D0F8000C8D
:102E100048F60F7108403B4909783E4A02EB8101B0
:102E2000C1F8000C37490978491E3C4A52F8210084
:102E3000804735484430006880B23149088000F44A
:102E4000004000287FF4D2AE00BF30E710B5002468
:102E50004AE047F6FF702C49443108602848008852
:102E600000F00F002749087008460078294901EB57
:102E70008000D0F8000C84B204F40040C8B12148AE
:102E8000007801EB8000D0F8000CC0F30E0048F68B
:102E90008F7108401B4909781E4A02EB8101C1F875
:102EA000000C18490978491E1B4A52F82100804736
:102EB0001AE004F08000B8B112480078154901EB1F
:102EC0008000D0F8000C48F60F7108400D490978D1
:102ED000104A02EB8101C1F8000C0A490978491E29
:102EE0000E4A52F82100804707484430006880B2FB
:102EF0000349088000F400400028AAD110BD00005A
:102F00007800002040000020005C004054000020B9
:102F10005600002000500040A00000208400002047
:102F2000F0B5144604F1010C4FEA6C07DFF848C015
:102F30000CEB41033D460AE00678401C90F800C0C7
:102F400046EA0C2223F8022B9B1C401C6D1E002D10
:102F5000F2D1F0BDF0B5561C7510074E06EB4104DA
:102F60002B4605E034F8047B20F8017B401C5B1EF7
:102F7000002BF7D1F0BD000000600040FA49086066
:102F80007047F948006880B27047F749091D08602A
:102F90007047F548001D006880B27047F24808305D
:102FA000006880B27047F0490C3108607047EE4805
:102FB0000C30006880B270474FF6F8710140EA4A61
:102FC000103211607047E8481030006880B27047D6
:102FD000E64B03EB8002C2F8001C70470146E34A4F
:102FE00002EB8100D0F8000C80B2704710B5DF4BC7
:102FF00003EB8002D2F8002C48F68F131A400A43E4
:10300000DA4C04EB8003C3F8002C10BD0146D74A0C
:1030100002EB8100D0F8000C00F4C060704730B5BE
:10302000D24C04EB8003D3F8003C48F6BF7403EAAB
:10303000040201F010030BB182F0100201F0200332
:103040000BB182F0200242F4004343F08003C74DED
:1030500005EB8004C4F8003C30BD30B5C34C04EB34
:103060008003D3F8003C4BF68F7403EA040201F4AA
:1030700080530BB182F4805201F400530BB182F4FF
:10308000005242F4004343F08003B84D05EB800446
:10309000C4F8003C30BD30B503460C461846FFF777
:1030A0009DFF0546012C07D125F48050AF4A02EB65
:1030B0008301C1F8000C08E0022C06D125F01000B5
:1030C000AA4A02EB8301C1F8000C30BD0146A74AB1
:1030D00002EB8100D0F8000C00F030007047014690
:1030E000A24A02EB8100D0F8000C00F44050704777
:1030F00010B59E4B03EB8002D2F8002C48F6BF734C
:1031000002EA030181F0100181F0200141F4004244
:1031100042F08002954C04EB8003C3F8002C10BDF4
:1031200010B5924B03EB8002D2F8002C4BF68F7354
:1031300002EA030181F4805181F4005141F400421C
:1031400042F08002894C04EB8003C3F8002C10BDD0
:10315000864A02EB8001D1F8001C41F4807148F6E8
:103160008F72114048F280021143804B03EB8002C2
:10317000C2F8001C70477D4A02EB8001D1F8001CA8
:1031800048F68F62114048F280021143774B03EBFF
:103190008002C2F8001C7047744A02EB8001D1F82B
:1031A000001C48F68F62114048F2800211436F4BB9
:1031B00003EB8002C2F8001C70476C4A02EB8001EE
:1031C000D1F8001C41F4807148F68F72114048F22A
:1031D00080021143654B03EB8002C2F8001C70476C
:1031E000624A02EB8001D1F8001C41F4807148F67C
:1031F0008F72114048F2800211435C4B03EB800256
:10320000C2F8001C7047594A02EB8001D1F8001C3B
:1032100048F68F62114048F280021143534B03EB92
:103220008002C2F8001C70470146504A02EB810040
:10323000D0F8000C00F03000102801D101207047B8
:103240000020FCE70146494A02EB8100D0F8000C5F
:1032500000F44050B0F5805F01D10120704700209C
:10326000FCE7424A02EB8001D1F8001CC1F30E01D9
:1032700048F68F7211403D4B03EB8002C2F8001CF0
:1032800070473A4A02EB8001D1F8001C48F60F72F1
:103290001140364B03EB8002C2F8001C7047334AE2
:1032A00002EB8001D1F8001C48F68F7211404CF2FD
:1032B000800211432D4B03EB8002C2F8001C7047C3
:1032C0002A4A02EB8001D1F8001C48F68F721140A7
:1032D00048F2C0021143254B03EB8002C2F8001CE8
:1032E0007047224A02EB8001D1F8001C01F48041B2
:1032F00071B102EB8001D1F8001C48F68F721140C9
:103300004CF280021143194B03EB8002C2F8001CFF
:103310007047164A02EB8001D1F8001C01F0400111
:1033200071B102EB8001D1F8001C48F68F72114098
:1033300048F2C00211430D4B03EB8002C2F8001C9F
:10334000704710B5094B03EB8002D2F8002C48F609
:103350008F731A4048F280031A430A43034C04EB6C
:103360008003C3F8002C10BD405C004000500040BA
:103370000146FC4A02EB8100D0F8000C00F00F007F
:10338000704710B54A105200F74B1B689BB203EB15
:10339000C003F64C44F8132010BD10B54A1053007A
:1033A000F14A126892B202EBC002121DEF4C44F8CF
:1033B000123010BD0146EC48006880B200EBC1003D
:1033C000EA4A32F8100080B270470146E6480068C9
:1033D00080B200EBC100001DE44A32F8100080B258
:1033E0007047E14A126892B202EBC002921CDF4BB6
:1033F00043F81210704702463E290BDD481101F0D8
:103400001F030BB9431E98B24FF4004343EA8023D5
:10341000136007E0481001F001030BB1431C98B2A0
:1034200083021360704710B50246CF48006880B22F
:1034300000EBC200801DCD4C04EB40033E290BDDA8
:10344000481101F01F040CB9441EA0B24FF400440F
:1034500044EA80241C6007E0481001F001040CB12C
:10346000441CA0B284021C6010BD0146BE48006826
:1034700080B200EBC100801CBC4A32F81000C0F3DF
:10348000090070470146B848006880B200EBC100EF
:10349000801DB64A32F81000C0F30900704730B5FD
:1034A0004B105B00B04C2468A4B204EBC004AF4DD9
:1034B00045F8143053105C00AB4B1B689BB203EB18
:1034C000C0031B1D45F8134030BD10B54A10520013
:1034D000A54B1B689BB203EBC003A44C44F813201C
:1034E00010BD10B54A1053009F4A126892B202EB09
:1034F000C002121D9D4C44F8123010BD01469A487E
:10350000006880B200EBC100984A32F8100080B227
:10351000704701469448006880B200EBC100001D6E
:10352000924A32F8100080B2704730B50B46012B3A
:103530001FD18D49096889B201EBC001891C8B4DEF
:1035400005EB41043E2A0BDD511102F01F050DB9B8
:103550004D1EA9B24FF4004545EA8125256007E0DC
:10356000511002F001050DB14D1CA9B28D0225606C
:103570000AE0022B08D17C49096889B201EBC0013D
:10358000891C7A4C44F81120012B1FD17649096817
:1035900089B201EBC001891D744D05EB41043E2A3F
:1035A0000BDD511102F01F050DB94D1EA9B24FF4EC
:1035B000004545EA8125256007E0511002F001052C
:1035C0000DB14D1CA9B28D0225600AE0022B08D175
:1035D0006549096889B201EBC001891D634C44F853
:1035E000112030BD30B5034601291FD15E48006867
:1035F00080B200EBC300801C5C4D05EB40043E2A0A
:103600000BDD501102F01F050DB9451EA8B24FF495
:10361000004545EA8025256007E0501002F00105CD
:103620000DB1451CA8B2850225600AE0022908D127
:103630004D48006880B200EBC300801C4B4C44F83E
:10364000102030BD30B5034601291FD1464800681F
:1036500080B200EBC300801D444D05EB40043E2AC0
:103660000BDD501102F01F050DB9451EA8B24FF435
:10367000004545EA8025256007E0501002F001056D
:103680000DB1451CA8B2850225600AE0022908D1C7
:103690003548006880B200EBC300801D334C44F80D
:1036A000102030BD01463048006880B200EBC100F8
:1036B000801C2E4A32F81000C0F309007047014602
:1036C0002948006880B200EBC100801D274A32F80B
:1036D0001000C0F30900704701462348006880B21B
:1036E00000EBC100801D214A32F8100000F47C403C
:1036F00008B1012070471C48006880B200EBC1008F
:10370000801C1A4A32F81000C0F3090008B10220E8
:10371000F0E70020EEE710B5012910D1114B03EBC3
:103720008002D2F8002C48F68F731A4048F2C0038A
:103730001A430C4C04EB8003C3F8002C11E002295F
:103740000FD1084B03EB8002D2F8002C48F68F73A0
:103750001A404CF280031A43024C04EB8003C3F876
:10376000002C10BD00500040505C00400060004044
:10377000024641EA022070470146CAB20B1243EAF0
:103780000220704700201D4908604FF43F401C494B
:103790000880084600881949091F08600020704702
:1037A0002DE9F04104460E46154604F07F00FFF770
:1037B00001FE0746AAB239463046FFF7B1FBA9B26F
:1037C00004F07F00FFF70DFE0020BDE8F0812DE939
:1037D000F04104460E46002504F07F00FFF752FE3C
:1037E000054604F07F00FFF7F0FD07462A463946FC
:1037F0003046FFF7AFFB2846BDE8F081445C00404F
:103800004E00002010B54FF48020FEF71CFC10BDC8
:1038100010B500F047FA10BD10B50020FEF786F88D
:103820000121C805FEF72FF910BD10B59BA000F0CF
:1038300041FD0320A049086010BD10B59F4CA0A019
:1038400000F038FDA07A18B105209B49086002E01D
:1038500001209949086010BD0EB54FF48020FEF795
:10386000F2FB4FF48020009008208DF80500012025
:103870008DF806006846FEF76FFB14208DF80800EF
:1038800001208DF8090000208DF80A0001208DF834
:103890000B0002A8FDF765FD2A208DF80800002026
:1038A0008DF8090002A8FDF75CFD0EBD10B50446B9
:1038B0001CB189A000F0FEFC02E08DA000F0FAFC33
:1038C00010BD10B5044601210420FEF7CFF83CB12D
:1038D0008D48006880B220F002008B49086014E037
:1038E0008948006880B240F0020087490860874834
:1038F000006820F47F20854908600846006840F48D
:103900004C30086000208249086010BD30B50B467D
:10391000002100BF16E00A24B4EB107F05D9302443
:1039200004EB107403F8114005E0412404EB10741B
:103930000A3C03F81140000100254C00641C1D5591
:103940004C1CE1B29142E6DB30BD70B571480468B1
:10395000001D0568001D0668344454B108226E49F4
:103960002046FFF7D3FF04226B4910312846FFF7AA
:10397000CDFF70BD10B500206849A1F80208A1F87C
:103980000008674908806748017967A000F092FC49
:10399000644841796AA000F08DFC624881796FA08B
:1039A00000F088FC5F48016873A000F083FC0120F0
:1039B00010BD30B503460A46002134E0585C584C2F
:1039C000248804F4004464BB554C248804F48044E7
:1039D00064B10A2803D00024514D2C8021E0504CC2
:1039E000248844F400444E4D2C801AE00D2806D162
:1039F0004B4C248844F48044494D2C8011E0484CC1
:103A00002488C4F30D04624D2855454C2488641C59
:103A1000434D2C802C462488B4F5006F01DB002434
:103A20002C804C1CE1B29142C8DB3D4C248844F40C
:103A300000443B4D2C8030BD3849B1F80018374A5E
:103A400050541146B1F80018491CA2F8001811464C
:103A5000B1F80018B1F5006F02D10021A2F80018EA
:103A600070470FB438B505A800904A48009A0499E9
:103A700000F00EFC00200090464800F027FD85B2C3
:103A8000002405E04349085DFFF7D6FF601C84B2BF
:103A9000AC42F7DB38BC5DF814FB000075736220A4
:103AA000656E746572206C6F7720706F7765722019
:103AB0006D6F64650D0A000050010020A404002011
:103AC0006C65617665206C6F7720706F776572200A
:103AD0006D6F64650D0A00007573622070756C6C03
:103AE00020757020656E61626C650D0A0000000033
:103AF0007573622070756C6C2075702064697361D9
:103B0000626C650D0A000000405C00400408014042
:103B1000B0012142E8F7FF1F5C000020C004002034
:103B200058000020C00000206C696E65636F6469F6
:103B30006E672E666F726D61743A25640D0A00001F
:103B40006C696E65636F64696E672E70617269740B
:103B500079747970653A25640D0A00006C696E65A8
:103B6000636F64696E672E64617461747970653A1D
:103B700025640D0A000000006C696E65636F64695E
:103B80006E672E626974726174653A25640D0A006D
:103B9000C4140020C40C002070B53C48B0F80208E2
:103BA0003A49B1F80018884200D170BD3748B0F8E2
:103BB00002083649B1F80018884208DA3348B0F8EC
:103BC00000083249B1F80218401A84B205E02F48C3
:103BD000B0F80208C0F5006084B2402C00DD40243B
:103BE0002A48B0F80258B0F8020820442749A1F842
:103BF00002080846B0F80208B0F5006F02DB0020AA
:103C0000A1F80208214948192246C021FFF788F986
:103C100021460120FFF7E5FB0120FFF769FA00BF0D
:103C2000C3E770B51A490320FFF7D1FD85B2002420
:103C300013E01748015D174802880088401C154BA7
:103C400018801548815418460088B0F5207F02D1AD
:103C5000002019460880601C84B2402CE9DB032058
:103C6000FFF75EFA70BD10B50C48006805280CD14E
:103C70000B4801680068401C094A1060052904D1FE
:103C8000002011460860FFF787FF10BDC004002028
:103C9000C41C0020160000205C0100205001002000
:103CA0007400002010B588B0002469480068694994
:103CB00008800846008800F40070674909880840B9
:103CC00050B14FF6FF506249086064480078401CCC
:103CD00062490870FFF7C7FF5E48008800F40040A3
:103CE0005D490988084008B1FEF77CFF5948008803
:103CF00000F4806058490988084030B14FF6FF3021
:103D0000534908605649486880475248008800F483
:103D1000005051490988084018B14DF6FF704C49D0
:103D200008604C48008800F480504B4909880840DE
:103D300030B14EF6FF7046490860002000F039FAB5
:103D40004448008800F4006043490988084060B195
:103D50004448007810B100F0D6F902E0022000F0EB
:103D600028FA4FF2FF703A4908603A48008800F498
:103D70008070394909880840002866D04FF6FF60F6
:103D800033490860081D006800F40040002856D040
:103D900035480068401C344908600846006803281C
:103DA00050D92B48001F006800F00800002849D1B6
:103DB0002748001F006880B22C490860002408E0F2
:103DC0002B4901EB8400D0F8000C80B24DF82400A0
:103DD000641C082CF4D32548006840F001002349F6
:103DE00008600846006880B21949091F08601F482A
:103DF000006820F001001D4908600846006880B294
:103E00001349091F086000BF1148006800F4806072
:103E10000028F9D04FF6FF300D490860002408E073
:103E20005DF8240080B2124A02EB8401C1F8000C54
:103E3000641C082CF4D300200B49086002E0002029
:103E400009490860072000F0B4F908B010BD00006F
:103E5000445C0040780000204E0000207A000020E2
:103E6000CC000020540100207C00002080000020B5
:103E70000050004010B5FFF768FD00208349096835
:103E8000887200F017F9FFF77DFC00208049086078
:103E900010BD10B500207D49096888727D48C07941
:103EA0007A4909684872002078490968C872FFF7A2
:103EB00083F84FF400710020FFF798F810210020DC
:103EC000FFF7ADF840210020FFF767FA80210020BE
:103ED000FFF757FA0020FFF75FF96F4890F82C10B2
:103EE0000020FFF7A0FA0020FFF71AF900210120B7
:103EF000FFF77CF8C0210120FFF743FA20210120C1
:103F0000FFF78DF800210120FFF7A7F84FF4C061FB
:103F10000220FFF76BF84FF480710220FFF731FAAF
:103F200000210220FFF799F820210220FFF777F8FF
:103F300000210320FFF75AF84FF488710320FFF7A0
:103F40002CFA40210320FFF76EFA4FF44051032072
:103F5000FFF783F800210320FFF761F80020FEF748
:103F600094FD01204A49086010BD4C48817A11B186
:103F70000521474A11607047042045490860704791
:103F800010B547480078202804D1FFF7F3FC002043
:103F90004349087010BD7047014629B908203B4AC3
:103FA00012681082002070473E48FCE7014629B99C
:103FB0000820364A12681082002070473948FCE712
:103FC00070B504460025212C09D1304800680078DE
:103FD00000F07F00212810D1AFF22F050DE0202C3A
:103FE0000BD12A480068007800F07F00212801D119
:103FF000AFF25B0520202A4908700DB9022070BD80
:104000002248006885610021204800684182002024
:10401000A8470020F3E701461C480068007800F03C
:104020007F00212807D1022901D1002070472229D1
:1040300001D10020FAE70220F8E710B504461A493A
:104040002046FEF718FA10BD10B504461749204661
:10405000FEF711FA10BD70B505460C480068C4782B
:10406000042C01DD002070BD114800EBC40128467E
:10407000FEF701FAF7E70246002901DD022070474A
:10408000012A01DD0220FAE70020F8E744000020C1
:1040900050010020347D0008CC000020A404002042
:1040A000BC000020C00000202001002028010020CA
:1040B0003001002010B50120FFF7F8FB01246D4806
:1040C000046000206C49088008460088694908603F
:1040D0000020091D08604FF4E05067490880084639
:1040E000008864490860002010BD10B501206149B6
:1040F00008600020091D0860FFF7D8FB03205D4918
:104100000860002010BD38B50025002000905948F7
:10411000006884B200BF09E0584901EB8500D0F87F
:10412000000C80B2564941F825006D1C082DF3D3D0
:1041300044F480644F48046044F00104046024F0B7
:104140000104046000BF4B48001D006800F480605B
:104150000028F8D04FF6FF304649091D08600025B9
:1041600009E0474850F8250080B2444A02EB850137
:10417000C1F8000C6D1C082DF3D344F008043D4831
:104180000460006884B244F004043A480460FFF715
:104190004CFB38BD10B53748006884B224F00404E5
:1041A00034480460FFF749FB4FF43F403149086051
:1041B00010BD70B50546072D01D032480570314855
:1041C000007808284ED2DFE800F004111A202B38BE
:1041D0004E4F2D48006828B9FFF7DCFF062029491B
:1041E000087002E005202749087041E0FFF7D2FF80
:1041F00004202449087001202349086038E0022087
:10420000204948700320087032E01E484078401E64
:104210001C4948700846407808B90420087027E017
:104220001448006884B244F0100412480460052069
:10423000144908700A2048701AE012484078401E5D
:10424000104948700846407858B90A48006884B256
:1042500024F01004074804600620087000200A4972
:10426000086005E000BF00BF06200649087000BFD7
:1042700000BF70BD405C00404E0000200050004078
:10428000041D002055010020580100207047000047
:104290001CB50C46064B7B4469460090204600F056
:1042A0000CFA04460020694600F01AFA20461CBDAC
:1042B000470400000FB4044910B503AA029800F0A7
:1042C00015FA10BC5DF814FB200000202DE9F04128
:1042D0000646002410687529314616A510D000F056
:1042E0003FF9002802DA404213A507E031688A0747
:1042F00001D512A502E0490704D511A5012401E06A
:1043000000F037F900210A2206F1240709E0B0FB8A
:10431000F2FCB0FBF2F302FB1C003030785418467C
:10432000491C0028F3D123462A463046BDE8F04117
:1043300000F051B9000000002D0000002B0000002B
:10434000200000002DE9F05F894604464FF0000A86
:10435000DFF874B1FB44C0F820A02046E16888472C
:10436000002874D0252806D0D4E901219047206A7E
:10437000401C2062F1E700265F462046E16888473E
:104380002028054607DB312D05D2781910F8200CBE
:1043900008B10643F1E7B00701D526F00406C4F8DA
:1043A0001CA00027C4F818A02A2D09D0284601F027
:1043B0006CFA38B304EB8708303DC8F8185019E0A0
:1043C00059F8041B204604EB87029161E168884795
:1043D000012F054618D1E069002820DA26F02006D2
:1043E0001DE0D8F8180000EB800005EB40003038E5
:1043F000C8F818002046E1688847054601F045FAEC
:104400000028EED1012F0AD02E2D08D12046E168D8
:1044100088477F1C0546022F46F02006C4DBA069B2
:10442000002803DA404246F00106A061F00701D0FF
:1044300026F010066C2D0BD0682D09D04C2D39D0EC
:104440006A2D35D0742D35D07A2D33D016E038E072
:10445000E1682F4620468847B842054609D16C2FAF
:1044600026D04FF48060E168064320468847054621
:1044700004E06C2F1AD04FF4807006430DB3A5F101
:104480004100192802D8203546F400664A462946DC
:10449000204626604E46FBF7A5FE80B101280BD0D2
:1044A000F61D26F0070000F1080956E74020E4E772
:1044B0008020D8E70020D6E706F104094DE728461A
:1044C00052E7206ABDE8F09F7B3A000010B5431C1C
:1044D00002E010F8011B71B18107FAD14FF00132EF
:1044E00002C88C1A8C4314EAC211F9D0C01A0A0609
:1044F00003D0C01E10BDC01A10BD0A0401D0801E1A
:1045000010BD0902FCD0401E10BD704770477047B7
:10451000704770B5044685690068C10601D530262C
:1045200000E02026C00707D070BDD4E90121304645
:104530009047206A401C20626D1EF6D570BD70B594
:10454000044685690078C00707D170BDD4E9012110
:1045500020209047206A401C20626D1EF6D570BD59
:1045600009684A0501D540B27047C905FCD500B2BB
:10457000704709684A0501D5C0B27047C905FCD526
:1045800080B2704770B50C460546012A05D02878E0
:10459000800600D5EA69002302E0012305E05B1CE8
:1045A000934202D2E05C0028F9D1A869E618C01A4B
:1045B000A861286A184428622846FFF7AAFF04E089
:1045C000D5E9012114F8010B9047B442F8D32846ED
:1045D000FFF7B5FF70BD2DE9F0470D4699469246AD
:1045E000044600F124080168880604D5E06921F03A
:1045F0001001216000E00120A84201DD471B00E01E
:104600000027A1697A1902EB0900081AA061207835
:10461000C00602D42046FFF77CFF002608E0D4E95C
:1046200001211AF806009047206A401C761C20627F
:104630004E45F4DB2078C0060AD52046FFF769FF17
:1046400006E0D4E9012130209047206A401C206216
:10465000381EA7F10107F4DC07E0D4E9012118F8BE
:1046600005009047206A401C2062281EA5F1010524
:10467000F3DC2046FFF763FF2078000602D5022016
:10468000BDE8F0870120FBE711680268006A530566
:1046900001D508700AE0D30501D5088006E01306AD
:1046A00003D5C217C1E9000200E00860012070478D
:1046B00001694A1C02610878704700B58FB0CDE9E6
:1046C00001310021059105497944CDE903101146D6
:1046D0006846FFF737FE0FB000BD0000E5FFFFFFA3
:1046E0000A6802F8010B0A6070470000074B70B5BA
:1046F0000D467B44FFF7E1FF0446284600F0A4FB8B
:1047000010B14FF0FF3070BD204670BDE7CAFFFF0B
:104710002DE9FF5F15468A460446DFF8AC80F84471
:104720000027D8E900103E46CDE9001010E03AF825
:1047300016106A4602A800F08BFB411C07D02178B6
:10474000890603D5E269391891420DD80744761CD1
:104750002078800602D5E069B84205DDAE42E6DB8E
:104760003AF816000028E2D1A069C01BA0612046DB
:10477000FFF7CFFED8E90010CDE90010002017E0C8
:104780003AF818106A4602A800F062FBB0F1FF3F49
:1047900081460BD000250DF1080B05E0D4E901217D
:1047A0001BF8050090476D1C4D45F7D308F101003B
:1047B000B0428046E4DB206A384420622046FFF79E
:1047C000BEFEBDE8FF9F0000C23600002DE9F041AB
:1047D0008046D21D22F007020025D2E90002F52909
:1047E00015A614D0011E72F1000106DA0023D0EBE9
:1047F000030063EB020211A608E0D8F800108B0753
:1048000001D50FA602E0490701D50EA601251146E4
:10481000002408F1240704E000F098F830323A55FB
:10482000641C50EA0102F7D12B463246214640462D
:10483000BDE8F041FFF7CFBE000000002D000000F2
:104840002B0000002000000030B4002100F12404FF
:1048500008E002F00705D208303542EA4372DB086F
:104860006554491C52EA0305F3D10468002310A2E1
:10487000250708D504F020040C4304D0C4690123A3
:104880000CA2641EC46130BCFFF7A5BE10B504467F
:1048900021461068FFF76DFE02462046BDE8104035
:1048A0000023D1E7D21D22F00701D1E90023CBE795
:1048B0000000000030000000F0B40D46018809053A
:1048C00002D5214C7C4402E01F4C7C440E34002174
:1048D00000F1240608E002F00F071209E75D42EA42
:1048E00003721B097754491C52EA0307F3D102787B
:1048F0000023120704D5702D06D009B1022311340C
:104900002246F0BCFFF767BE01231034F8E770B50C
:1049100004460D4621461068FFF72BFE0246294645
:104920002046BDE870400023C6E7D21D22F00703F1
:10493000D3E90023C0E70368126843F02003036053
:104940000823C3610023B7E72435000030B5B0F178
:104950000A024FEA900E71F100034EEA817EB0EB3D
:104960000E0061EB91014FEA101E4EEA017E10EB42
:104970000E0041EB11114FEA102E4EEA016E10EBC2
:104980000E0041EB11214FEA104E4EEA014E10EBA2
:104990000E0041EB1141401841F100014FEAD000F7
:1049A00040EA41704FEAD10110EB80054FEA8104E3
:1049B00044EA907444EB01046D1944EB0404521B67
:1049C000A3414FF0000348BF0A3200D530BD401C60
:1049D00041F1000130BD70472DE9FF4F0C461E46E6
:1049E0004FF0FF378BB0D2E90001DDF860800A900C
:1049F0008A46C1F30A5505B93D46002108464FF0E5
:104A00000000BAF1000F00F4400005DA00EB80006E
:104A10004FF4400101EA50004FEA9059B9F1010FFB
:104A200000DDB9460A9850EA4A000ED044F610500C
:104A3000A5F2FF3545432F14B8F1000F1ED0754283
:104A4000291E1EDDC9F100021CE0B8F1010F4FF074
:104A5000000001D0302103E0F24305E02154401C66
:104A6000B042FBDB30460022002121540B99C1F8F3
:104A70000880C1E900200FB0BDE8F08FBD1B6D1CA0
:104A8000DEE74A4600DA694206A800F073FA06AB90
:104A900093E8070003AB83E8070050460A9900F04B
:104AA00025FB8DE80700A0F500501F380090039803
:104AB000002D09DD42F21F014A46084403A9039074
:104AC000684600F084FD08E0A0F500504A461F3813
:104AD00003A90390684600F08EFD8DE807000004EE
:104AE000000C03D04FF0FF30410800E01046B8F151
:104AF000000F03D00022009215461EE0751E05D45B
:104B0000FFF724FF303262556D1EF9D5B3460122FE
:104B1000084302D000227F1C04E02078302801D115
:104B200000227F1E002A099786D01DE0112D07DA8A
:104B3000FFF70CFF303262556D1C50EA0102F5D1CF
:104B4000084302D00098C8B10EE00021681E05E0BD
:104B5000235C625C63542254401E491C8142F7DB93
:104B6000AB46A81B401E0990002004F80B000B98D0
:104B7000099AC0F80880C0E9002B7CE711264FF0A5
:104B8000000859E72DE9F04F88460446D21D22F06F
:104B9000070191B0D1E90001CDE90A0100F061FE01
:104BA00002460B98C00F01D02D2007E02068810736
:104BB00001D52B2002E0202101EAC000032A099040
:104BC00001D0072A05DB03464146204600F092F952
:104BD0000BE12078800601D5E06900E00620B8F1FD
:104BE000650F814606D0B8F1660F18D0B8F1670F8F
:104BF00070D131E00020B9F1110F009001DB1123D9
:104C000001E009F101030AAA01A90CA8FFF7E4FEDB
:104C1000DDE90C70002609F10105834647E001201B
:104C20004B4600904FF000470AAA01A90CA8FFF7D5
:104C3000D3FEDDE90DB00C995D46002610B909F1EF
:104C400001000D18B9EB050003D4C0F1FF3609F1DE
:104C50000105A5EB09002BE0B9F1010F01DA4FF0D6
:104C600001090020B9F1110F0090484601DD112320
:104C700000E003460AAA01A90CA8FFF7ADFEDDE992
:104C80000C704D4600268346207800070AD4AB45B9
:104C900000DA5D4601A8012D04DD411911F8011C5F
:104CA000302907D04F4502DA17F1040F04DA01204A
:104CB00082460FE06D1EEEE7002F02DCED1B3E4446
:104CC00003E0781CA84200DD7D1CB81B00F1010A3E
:104CD0004FF000472078000703D4AA4501DB4FF0CE
:104CE000FF3A0021B7F1004F0DF143088DF8431052
:104CF00024D002202B23002F01DA7F422D230A210A
:104D0000021EA0F1010000DC5FB197FBF1FC97FBF4
:104D1000F1F201FB1C7C17460CF1300C08F801CDB8
:104D2000EEE7A8F1010003702188090501D54521AE
:104D300000E06521A0F1010800F8011C09980FA905
:104D4000A1EB0807FF1D00B10120411901EBEA703A
:104D5000A1693844081A401EA0612078C00602D418
:104D60002046FFF7D6FB099828B1D4E901219047E6
:104D7000206A401C20622078C00622D52046FFF71A
:104D8000C8FB1EE0002E04DBB34502DD01A8805DF8
:104D900000E03020D4E901219047206A401C2062C5
:104DA000761CAAF101005FEA000A0AD100F09EF821
:104DB000C0680168405CD4E901219047206A401C2A
:104DC0002062281EA5F10105DCDC07E0D4E9012101
:104DD00018F8010B9047206A401C2062381EA7F18A
:104DE0000107F3DC2046FFF7AAFB032011B043E6DE
:104DF00010B5436913B1AFF3008001E0FFF7C2FBC8
:104E0000012010BD127800F124010A7000224A70BE
:104E10000122EDE711684FF0FF32E9E710B5436971
:104E200013B1AFF3008001E0FFF772FC012010BD69
:104E3000128800F1240182840022C2840122EDE75D
:104E400011684FF0FF32E9E7007B00F08000704707
:104E500070B516460C46054600F040F8036893F816
:104E60000101012806D0FF2C0FD8185D68B1012080
:104E70002C7070BDD3F807013246214603F20713A8
:104E800003442846BDE8704018474FF0FF3070BD1E
:104E9000754600F0E7F8AE4605006946534620F037
:104EA0000700854618B020B5FCF744FABDE820405D
:104EB0004FF000064FF000074FF000084FF0000BD6
:104EC00021F00701AC46ACE8C009ACE8C009ACE889
:104ED000C009ACE8C0098D467047000010B500F06D
:104EE00005F8001D10BD00BFDD0900000048704737
:104EF000441D00202DE9F0411F46044603260168A9
:104F0000072A01F4006004DB08B116A505E016A528
:104F100003E008B115A500E015A521F01000206000
:104F2000A069C01EA0610FB1401EA0612046FFF71E
:104F3000F0FA4FB1D4E9012138469047206A401C6D
:104F40002062C01C206206E0206AFAE7D4E9012151
:104F500015F8010B9047761EF8D22046FFF7EFFABE
:104F6000BDE8F0814E414E006E616E00494E460034
:104F7000696E66002DE9F047814616468AB03348CF
:104F800078440DC88DE80D0030487844801C03AC8F
:104F90000DC884E80D0041F69B300844372190FB92
:104FA000F1F290FBF1F5A5F1800501FB12041B3C29
:104FB00002D56442012000E00020DFF890A0804686
:104FC0000027FA44AAF1BE0A0DE0E00709D03246F4
:104FD000684607EB47010AEB810100F00CFB8DE806
:104FE000070064107F1C002CEFD1184F7F44AC3FAA
:104FF00018E0E80714D007EB04100DF1180A90E848
:105000000E008AE80E00C068F04201D1981908909D
:10501000324606A903A800F0EEFA03AB83E80700C6
:105020006D10641C002DE4D132466946B8F1000FC2
:1050300003A802D000F0CBFA01E000F0DCFAC9E9E5
:105040000001C9F808200AB0BDE8F0870C2F000065
:1050500010B50446AFF300802046BDE81040FBF7D2
:1050600024B9000000487047241D00204FF0013C87
:1050700050F8042B51F8043B9A4221D1A2EB0C03C7
:10508000934313EACC1317D150F8042B51F8043B87
:105090009A4215D1A2EB0C03934313EACC130BD124
:1050A00050F8042B51F8043B9A4209D1A2EB0C03AF
:1050B000934313EACC13DBD04FF00000704700BFDE
:1050C000D01A01BAB1FA81F101F0180122FA01F007
:1050D000CB40C1F12001DBB2C0B2C01A2CFA01F3FF
:1050E000D11A914311EAC311E6D170475FEA400C2F
:1050F00008BF91F0000F4FEA8C234FEAC12243EA28
:1051000051514FEA1C5018BF00F5F0404FEA3000F3
:1051100018BF41F000415FEA6C5C00F02980BCF1EF
:10512000FF3F08BF40F080407047130C06BF1204D9
:105130004FF0100C4FF0000C130E04BF12020CF1D4
:10514000080C130F04BF12010CF1040C930F04BFE1
:1051500092000CF1020CD30F04BF52000CF1010CB1
:1051600011464FF00002A0F11F00A0EB0C007047A9
:1051700011F0004F08BF704731F000413FF4D5AF48
:105180000B0C06BF09044FF0100C4FF0000C0B0E77
:1051900004BF09020CF1080C0B0F04BF09010CF14C
:1051A000040C8B0F04BF89000CF1020CCB0F04BF61
:1051B00049000CF1010CCCF12003A0EB0C0022FA09
:1051C00003F302FA0CF241EA030100F10100704717
:1051D00020F07F4C80EA030023F07F47ACEB07030D
:1051E00003F57C5300F0004003F1FF032DE98049F3
:1051F0004FEA154B09B44FEA144325EA0B4E24EA53
:1052000003480FF2042606EB132749083E785FEAAD
:10521000320203FB0667C7F5000707FB06F64FEAF5
:1052200054374FEAD64606F1020607FB066CCCF16E
:10523000005C4FEA1C472CEA074C07FB06F40CFB0A
:1052400006F504EB15464FEA961634BF00204FF0E2
:1052500000404FEAD13706FB07FC4FEA1C4C0CFB21
:105260000BF7D21B03FB0CF761EB07010CFB0EF7EE
:10527000B0EB074072EB17420CFB08F734BFA2EB10
:105280000742B2EB074261EB17414FEA0C444FEA89
:10529000910706FB07FC4FEA1C4C0CFB0BF7B0EB2D
:1052A000C74072EB573203FB0CF734BFA2EBC74287
:1052B000B2EBC74261EB57310CFB0EF7B0EBC70006
:1052C00072EB57720CFB08F734BFA2EBC702B2EBCC
:1052D000C70261EB5771039F4FEA816141EA921166
:1052E00004EBCC044FEAD1374FEA826206FB07FC9D
:1052F00042EA90124FEA80604FEA1C4C0CFB0BF71D
:10530000D21B03FB0CF761EB07010CFB0EF7B0EBB4
:10531000074072EB17420CFB08F734BFA2EB0742C1
:10532000B2EB074261EB17414FEA8C554FEA910708
:1053300004EB9C2406FB07FC4FEA1C4C0CFB0BF710
:10534000B0EBC74072EB573203FB0CF734BFA2EB54
:10535000C742B2EBC74261EB57310CFB0EF7B0EB23
:10536000C70072EB57720CFB08F734BFA2EBC70201
:10537000B2EBC70261EB577115EB4C254FEA816127
:1053800041EA92114FEA82624FEAD13742EA901223
:1053900006FB07FC44F100044FEA80604FEA1C4C16
:1053A0000CFB0BF7D21B03FB0CF761EB07010CFBAB
:1053B0000EF7B0EB074072EB17420CFB08F734BF57
:1053C000A2EB0742B2EB074261EB174115EB1C154C
:1053D0004FEA813141EA92414FEA823242EA9042F9
:1053E0004FEA80304FEA0C7644F1000448EA034368
:1053F0004EEA0B484FF0000EB2EB080C71EB0307BE
:1054000024BF624639464EEB0E0E4FF0000B0018DB
:10541000524149414BEB0B0BB2EB080C71EB03070C
:105420007BF1000B24BF624639464EEB0E0E4FF067
:10543000000B0018524149414BEB0B0BB2EB080C2F
:1054400071EB03077BF1000B24BF624639464EEB3C
:105450000E0E51EA020718BF46F0010616EB0E7653
:1054600055F1000254F1000103D5BDE88901BDE802
:105470000088BDE88901BDE80048B619524141EBFA
:105480000101A3F10103704780807F7E7D7C7B7AE0
:105490007978777676757473727171706F6E6E6DE0
:1054A0006C6C6B6A6A696868676666656464636386
:1054B00062616160605F5F5E5E5D5D5C5C5B5B5A0C
:1054C0005A59595858575756565555555454535379
:1054D00052525251515050504F4F4F4E4E4D4D4DD4
:1054E0004C4C4C4B4B4B4A4A4A494949484848471F
:1054F000474747464646454545444444444343435D
:105500004342424242414141002B26D4770021D000
:105510001CB54FEA370703B44FF010004FF01001ED
:105520004FF000000FBCBDE810400BF1010BBBF1C8
:10553000010F08BF5FEA170722BF12F1010211F144
:1055400001014FF0004143F1000300F0004043EA45
:1055500000007047F9D35708DAE746EA064613F128
:10556000400F4FEA16461FDD13F1200FDFBF164331
:105570000A46002120335B42C8D0C3F1200746EA27
:10558000064602FA07F74FEA164646EA0706C3F14F
:10559000200722FA03F201FA07F721FA03F14FF08C
:1055A000000342EA0702B1E746EA020646EA064677
:1055B0004FEA164646EA0106BCBF46EA0646360CE6
:1055C0004FF000034FF000024FF000019EE72DE97D
:1055D000C048934630B491E8380007C831EA400C1F
:1055E00048BF34EA430C03D5FFF7F2FDFFF78CFF09
:1055F000F0BCBDE800882DE9C048934630B491E87E
:10560000380007C810F0804F08BF13F0804F03D157
:1056100000F005F8FFF778FFF0BCBDE8008820F047
:105620007F4780EA030023F07F4C07EB0C03A3F5D0
:105630007C5300F00040A3F1FE0392F0000F00F055
:10564000B38095F0000F00F077802DE901494FEA13
:1056500011404FEA144621EA004800FB06FC24EA08
:10566000064708FB06F607FB08F800FB07F718EBF0
:1056700006484CEB164C4FEA124B18EB07484FEA22
:1056800015464CEB174022EA0B4E0BFB06FC25EAB5
:1056900006470EFB06F607FB0EFE0BFB07F71EEB9D
:1056A000064E4CEB164C4FF000061EEB074E4CEB33
:1056B000174B18EB0B0840F1000018EB0E0B58EBE2
:1056C000000840F100008F1A4FF000013CBFC943B1
:1056D000661B14BFB5EB040C00213CBFC943F61B8D
:1056E0004FEA17444EEA8E0E27EA04454FEA1C475C
:1056F00004FB07622CEA074C05FB07F70CFB05F6D9
:1057000004FB0CFC16EB074642EB174216EB0C466B
:1057100042EB1C421BEB060658EB0202414146EAF3
:105720009E0601D5BDE80189B619524141EB010140
:10573000A3F10103BDE801894FEA14454FEA11477F
:1057400024EA054621EA074C05FB07F406FB07F7A8
:105750000CFB06F105FB0CFC11EB074144EB174475
:105760004FEA124711EB0C4144EB1C4422EA074C70
:1057700005FB07F206FB07F70CFB06F605FB0CFC26
:1057800016EB074642EB174216EB0C4642EB1C4564
:105790006A1854F1000148BF7047B619524141EBF5
:1057A0000101A3F10103704795F0000F37D04FEAD4
:1057B00011424FEA144721EA024624EA074C02FB51
:1057C00007F106FB07F70CFB06F402FB0CFC14EBDD
:1057D000074441EB17414FEA154714EB0C4441EBEA
:1057E0001C4125EA074C02FB07F506FB07F70CFBFB
:1057F00006F602FB0CFC16EB074645EB174516EBCD
:105800000C4645EB1C42121951F1000148BF70478C
:10581000B619524141EB0101A3F1010370474FEA70
:1058200014454FEA114724EA054621EA074C05FBD7
:1058300007F106FB07F70CFB06F24FF0000605FB2D
:105840000CFC12EB074241EB174112EB0C4251EBFF
:105850001C4148BF7047921841EB0101A3F10103BD
:105860007047490050EAC12018BF04204A0D18BFF4
:1058700040F0010040F2FF72B2EB515F08BF40F010
:105880000200012808BF0520704730380A2801D2DD
:10589000012070470020704710B500290AD0087811
:1058A000002807D005487844FFF7E0FB002801D026
:1058B000002010BD0248784410BD000022260000E0
:1058C0001A26000010B500290AD00878002807D051
:1058D00005487844FFF7CAFB002801D0002010BD1E
:1058E0000248784410BD0000122600000A2600007D
:1058F000C10DD1F19E0206DB4FEA002343F00043C5
:1059000023FA02F07047004207D54FEA4001B1F197
:10591000FE4F02D24FF00000704710B500F089F83A
:1059200049922480002070476FEA200070470000F1
:105930004FF47F0C1CEAD0121EBF1CEAD11392EA6E
:105940000C0F93EA0C0F00F0478090EA010F48BF5C
:1059500042F480724FF0004C4CEA00204CEA0121E6
:1059600002EB0302A0FB0113A2F50002002918BFFD
:1059700043F001035B0028BF4FEA330342EB2242AE
:105980005FEA132C4CEBC2502EBFBCEB436FB2F559
:105990007C0F70474FEA036CBCF1004F08BF20F04A
:1059A0000100B2F57C0F38BF70470BD582F0FF02C3
:1059B00012F5803FC8BF704700F1C040D8BF00F06B
:1059C0000040704700F5000C5FEA4C0C48BF704780
:1059D000B0F1C04000F073B890EA010F0CEAD113A7
:1059E00048BF42F48072624538BF634504D280EA02
:1059F000010000F00040704710B500F01AF800BF39
:105A00008900013E00F007B800F009B85FEA410CD8
:105A10005FEA1C6C08D080EA010000F050B85FEA31
:105A2000400C5FEA1C6CF6D14FF00040A0F58000FE
:105A300070470EF1020E2EF0030E5EF8044B244266
:105A400004D44FEA4102B2F17F4F11D84FEA40032C
:105A5000B3F17F4F0CD80ED14FEAD07CB2F17F4F1B
:105A60000CEB4C0C0CF1020C08BF4CEBD17C04E0AD
:105A70004FF0080C01E04FEAD17C0CEB4C0324FA08
:105A800003F404F00704B4F1040C06D20EEB840C0A
:105A9000BDE810404CF0010C6047DFE80CF007084F
:105AA00002024FF00040A0F5800010BD0846420001
:105AB00018BFD2F1807288BF00F0004010BDFF21F6
:105AC00041EAD050C0057047FFF75CB80000000005
:105AD00000000000000000000000000000000008BE
